:020000040800F2
:1000000000A0002001270008492700084927000810
:100010004927000849270008492700080000000078
:100020000000000000000000000000004927000858
:100030004927000800000000492700084927000858
:1000400000000000000000000000000000000000B0
:1000500000000000000000000000000000000000A0
:100060000000000000000000000000000000000090
:100070000000000000000000000000000000000080
:100080000000000000000000000000000000000070
:100090000000000000000000000000000000000060
:1000A0000000000000000000000000000000000050
:1000B0000000000000000000000000000000000040
:1000C0000000000000000000000000000000000030
:1000D0000000000000000000000000000000000020
:1000E0000000000000000000000000000000000010
:1000F0000000000000000000000000000000000000
:1001000000000000000000000000000000000000EF
:1001100000000000000000000000000000000000DF
:1001200000000000000000000000000000000000CF
:1001300000000000000000000000000000000000BF
:1001400000000000000000000000000000000000AF
:10015000000000000000000000000000000000009F
:10016000000000000000000000000000000000008F
:10017000000000000000000000000000000000007F
:08018000000000000000000077
:100188000348044B834202D0034B03B1184770471E
:100198009002002090020020000000000548064B55
:1001A8001B1AD90F01EBA301491002D0034B03B16D
:1001B80018477047900200209002002000000000BD
:1001C80010B5064C237843B9FFF7DAFF044B13B197
:1001D8000448AFF300800123237010BD9002002073
:1001E800000000004C27000808B5044B1BB1044967
:1001F8000448AFF30080BDE80840CFE700000000E6
:10020800940200204C27000870B50F4B0F4DAB42ED
:10021800A3EB050607D0B610002455F8043B0134BB
:100228009847A642F9D802F08DFA094D094B5E1B92
:10023800AB424FEAA60606D0002455F8043B013429
:100248009847A642F9D870BD302800083028000821
:100258003028000834280008830730B547D0541EDA
:10026800002A3ED0CAB2034601E0013C39D303F864
:10027800012B9D07F9D1032C2CD9CDB205EB05250F
:100288000F2C05EB054535D9A4F1100222F00F0C0F
:1002980003F1100EE6444FEA121C1A46C2E9005553
:1002A800C2E9025510327245F8D10CF1010214F07E
:1002B8000C0F03EB021204F00F0C13D0ACF1040383
:1002C80023F003030433134442F8045B9342FBD145
:1002D8000CF003042CB1C9B21C4403F8011BA3425F
:1002E800FBD130BD64461346002CF4D1F9E7034630
:1002F8001446C0E71A46A446E0E700BF844641EA30
:10030800000313F003036DD1403A41D351F8043B85
:1003180040F8043B51F8043B40F8043B51F8043BD7
:1003280040F8043B51F8043B40F8043B51F8043BC7
:1003380040F8043B51F8043B40F8043B51F8043BB7
:1003480040F8043B51F8043B40F8043B51F8043BA7
:1003580040F8043B51F8043B40F8043B51F8043B97
:1003680040F8043B51F8043B40F8043B51F8043B87
:1003780040F8043B51F8043B40F8043B51F8043B77
:1003880040F8043B51F8043B40F8043B403ABDD2E6
:10039800303211D351F8043B40F8043B51F8043B88
:1003A80040F8043B51F8043B40F8043B51F8043B47
:1003B80040F8043B103AEDD20C3205D351F8043B17
:1003C80040F8043B043AF9D2043208D0D2071CBFE3
:1003D80011F8013B00F8013B01D30B88038060460C
:1003E800704700BF082A13D38B078DD010F0030382
:1003F8008AD0C3F10403D21ADB071CBF11F8013BF2
:1004080000F8013B80D331F8023B20F8023B7BE740
:10041800043AD9D3013A11F8013B00F8013BF9D26B
:100428000B7803704B7843708B7883706046704705
:1004380010B5094C94F80021102104EB0212722027
:1004480001F0FEF994F80031013303F00F0384F84A
:100458000031002010BD00BFAC02002038B50F4DA0
:1004680095F800310724B3FBF4F2C2EBC2029B1AE1
:100478000B4ADBB202EB03121021722085F800311F
:1004880001F0DEF995F800310133B3FBF4F4C4EB65
:10049800C4041B1B85F80031002038BDAC020020C5
:1004A80000000020F7B50023114D124E8DF80730DB
:1004B8001C4619461A46D8B217010001EF5D305C98
:1004C80087420BBF01320131D2B2C9B218BF012431
:1004D800072A03F10103EED10CB18DF807100DF1D5
:1004E80007020121722001F0ABF9002003B0F0BD32
:1004F80000000020AC02002030B5104D002485B06B
:1005080021464FF48072284685F80041FFF7A4FE83
:100518000B48009400F170032A4600F19001A030C6
:1005280000F0D0F842230DF10F02012172208DF85E
:100538000F3001F085F9204605B030BDAC0200202F
:100548000000002010B5044601F0F0FA01F0F5FAB9
:1005580022461021722001F073F9002010BD38B531
:1005680011F00204154602D00F2A12D91024CA0726
:100578000AD51034E4B2A5420BD3A4F1100210211D
:100588009818FFF7DFFF18B9641B18BF0124A000F3
:1005980038BD0420FCE7000008B501F025FA01F099
:1005A80063FA01F09FFA01F039F90E4A0121662039
:1005B80001F01AF90C4A0121632001F015F90B4AE0
:1005C8001021672001F010F9094A1021622001F07A
:1005D8000BF9084A1021012001F006F901F088F909
:1005E800FCE700BF01050008AD0400083904000855
:1005F80065040008670500082DE9F04FC3B00E46F2
:10060800814614460021342201A81D4603F1010A3F
:1006180006F12007FFF720FE334601AA186859683B
:10062800164603C60833BB423246F7D10134042CC0
:1006380002DD43B0BDE8F08F6D00C4F1040B05FA8C
:100648000BF30F2B4FEA4A0AF3DC671E01234FF026
:10065800100803FA07F708FA04F8013FC8442E46C1
:100668005645E3DA06FA0BF30F2BDFDC07EB6602DD
:100678000D9209EB02120DF1240C02F1100E106814
:100688005168634603C3083272459C46F7D10EA8E9
:1006980001F04EF801A934220EA801F04BF80EA87B
:1006A80001F055F8731C03FA0BF30F2BA8F1100097
:1006B80000EB06100EAACCBF1021202101F052F841
:1006C8000236CDE72DE9F04F87B09A460C4616461C
:1006D800814601F02BFA182200216846FFF7BCFD7D
:1006E80000231A46E15C29B106A901EB8201013217
:1006F80041F8183C0133102BF4D14FF0000845465F
:1007080047464FF0010B06AB03EB880353F8181C60
:10071800C7F1040321FA03F3AB4201D000240BE034
:100728007B1C042B4FEA450527DD08F101036D10FA
:100738000124052B98BF984601F0FFF98CB90BFAF4
:1007480007F4013C109B2C4409EB0414BBB9334655
:1007580004F1100154F8040B43F8040B8C42F9D14E
:100768001036EB071BD40135C7F1040305FA03F370
:100778000F2BC8DD07B0BDE8F08F1F46C8E733462A
:1007880006F1100153F8040B44F8040B8B42F9D11D
:100798002B463A4651464846FFF72EFFE0E7013F11
:1007A8006D10DEE72DE9F04FBDB003680A9343688A
:1007B8000B9383680C93C3680D9303690E93436985
:1007C8000F9383691093C3691193036A1293436A61
:1007D8001393836A1493C36A1593036B1693436B3D
:1007E8001793836B1893C36B1993036C1A93436C19
:1007F8001B93836C1C93C36C1D93036D1E93436DF5
:100808001F93836D2093C36D2193036E2293436ED0
:100818002393836E2493C36E2593036F2693436FAC
:100828002793836F2893C36F2993D0F880302A9336
:10083800D0F884302B93D0F888302C93D0F88C30B3
:100848002D93D0F890302E93D0F894302F93D0F881
:1008580098303093D0F89C303193D0F8A030329350
:10086800D0F8A4303393D0F8A8303493D0F8AC3013
:100878003593D0F8B0303693D0F8B4303793D0F8F9
:10088800B8303893D0F8BC303993D0F8C0303A93A8
:10089800D0F8C460014B009302E000BF682700084D
:1008A800149A0A9B159953400B9A82EA01051E9ADD
:1008B80053401F9A5540289A5340299A5540329AD6
:1008C8005340339A089355400C9B169A83EA0209C1
:1008D8000D9B179A83EA0208209B189A89EA030954
:1008E800219B88EA03082A9B89EA03092B9B88EA4B
:1008F8000308349B89EA0309359B88EA03080E9BA1
:1009080083EA020C0F9B199A83EA0207229B239A17
:100918008CEA030C57402C9B2D9A8CEA030C574009
:10092800369B379A8CEA030C5740109B1A9ADDF8CD
:1009380074E083EA0204119B1B9A83EA0201249A59
:10094800129B5440259A51402E9A54402F9A514058
:10095800389A5440399A51401C9A5A40139B83EA5A
:100968000E0E269B5A40279B8EEA030E309B5A4058
:10097800319B8EEA030E3A9B4FEA490B5A404BEAE9
:10098800D87B4FEA480A8EEA060E8BEA02034AEA47
:10099800D97A01938AEA0E0302934FEA4C0B089B1B
:1009A8004BEAD77B4FEA470A4AEADC7A8BEA030329
:1009B80003938AEA05034FEA410A4AEAD47A049380
:1009C8008AEA08034FEA4E0848EAD278520042EA17
:1009D800DE72059382EA0C03069388EA07030793FD
:1009E800089B6A0042EAD3725B0043EAD57363400E
:1009F800089382EA01034FEA440B0A9A0993019B80
:100A08004BEAD17B8BEA090B83EA0209029B0B9A1A
:100A18001799239C2F9F83EA020A039B169A5A4030
:100A2800049B150D4B4045EA03351B0D43EA023381
:100A3800229A05998BEA02024C404FEA525848EA3A
:100A4800C428640D44EAC2242E99069A5140079A94
:100A58007A404FEA425E4EEAD12E49053A9F41EA72
:100A6800D221089A7A40099F7E404FEA863C4CEA98
:100A7800924C920342EA9642009ED6E900768AEAB0
:100A880006060B9689EA070728EA05067E400B9FAB
:100A98000A9624EA030677402EEA04065E400B977E
:100AA80021EA08076F40239625EA09052CEA0E0675
:100AB80023EA0A03744083EA0C0329EA0206229710
:100AC80022EA01076A4071403B942E922AEA0C04FC
:100AD800109A2F93069B169187EA080784EA0E015D
:100AE8003A97179183EA0201079B119A1D9C2B9F45
:100AF80053404FEA037C4CEA111C090741EA1311E1
:100B08001C9A089B5340099A6240160546EA133618
:100B18001B051E9C43EA1233019A82EA04051F9CB6
:100B2800029A62404FEAC20848EA5578ED002A9CCA
:100B380045EA5275039A6240049C4FEAD24E7C40C3
:100B48004EEA443EE40C44EA4234369A379F8BEA34
:100B58000209059A7A404FEAD90747EA427725EA17
:100B6800030AD20842EA49728AEA010A28EA06090F
:100B780089EA0C09CDF8A8A02EEA050A8AEA030A30
:100B8800CDF8AC9024EA080989EA0609CDF840A016
:100B980023EA010327EA0E0A8AEA050526EA0C0673
:100BA8007B40CDF8449022EA04091E951C9389EAFB
:100BB800080586EA02031F951D932CEA0205039B8C
:100BC8000C9A21EA070883EA0201049B0D9A534014
:100BD8004FEA430C4CEAD17C88EA0E0E6C4049007F
:100BE80041EAD371CDF8D8E0189B3794059A199C3F
:100BF800319FDDF8CC9062408BEA0303960146EA08
:100C080093669B01249C43EA9263069A82EA040550
:100C1800259C079A62404FEA426848EAD5186D0653
:100C280045EAD215309C089A5440099A7A404FEA0E
:100C3800022E4EEA146E2402329F44EA1264019A8C
:100C48007A40029F87EA09094FEA894747EA9237BB
:100C580025EA030A920442EA99328AEA010A28EA52
:100C6800060989EA0C09CDF860A024EA050A8AEA8F
:100C7800030ACDF8649023EA01032EEA080989EAF9
:100C88000609534026EA0C06CDF8C0A022EA040A59
:100C98008AEA0505CDF8C490329327EA0E0986EA58
:100CA80007030C95339389EA0805089B0D9521EAFB
:100CB8000208129A83EA0201139A099B53402CEA0C
:100CC80007054FEAC36C4CEA511CC90641EA5311A7
:100CD80088EA0404019B149A249485EA0E045A4075
:100CE8002594029B159C160F634046EA03161B0FBA
:100CF80043EA0213039A209C2D9F82EA0405219C53
:100D0800049A62404FEA822848EA9558AD0245EABB
:100D180092552C9A8BEA0204059A7A404FEAC23E11
:100D28004EEA544EE403389F44EA5244069A82EA53
:100D38000709399F079A7A404FEA192747EA026755
:100D480025EA060A120A42EA09628AEA010A28EA38
:100D5800030989EA0C09CDF8E0A024EA050A8AEA21
:100D6800060ACDF8E4902EEA080989EA0309CDF8C5
:100D780050A023EA0C0327EA040A8AEA050553402F
:100D8800CDF8549026EA010622EA0E092C95219303
:100D980089EA08050E9B2D9521EA070886EA0701CE
:100DA8002CEA020588EA0404059A20910F99129406
:100DB8008BEA030385EA0E0413949D0882EA010472
:100DC80045EA8475A40844EA83741A9A069B269E09
:100DD800279F83EA0201079B1B9A5A404B0A43EA62
:100DE800C253520A42EAC15208997140099E4FEA19
:100DF800516C77404CEAC71C7F0E47EAC11701992E
:100E0800289EDDF8A4E0DDF8D4907140029E4FEAF8
:100E1800D15886EA0E0648EA4628F60DDDF8D0E0F5
:100E280046EA4126039981EA0E01DDF810E08EEAD0
:100E380009094FEA890E4EEA917E2CEA030A8900D5
:100E480041EA99718AEA050A27EA0209CDF898A0C9
:100E580089EA040928EA0C0ACDF89C908AEA030A70
:100E680026EA070923EA050389EA02094B4022EA30
:100E780004020E9382EA0E03CDF8D0A02A9ACDF888
:100E8800D49021EA080A2EEA06090F930A9B8AEAF7
:100E98000C0C89EA0707CDF868C01B9725EA010CF6
:100EA80024EA0E072B995A400B9B7E40299683EA29
:100EB80001061899229B4A4019994E4038994A4090
:100EC80039994E4026994A4027994E40109983EA0D
:100ED80001091199239B8CEA080CCDF8A0C083EA7C
:100EE8000108309B1E99DDF8CCE089EA0309319BA3
:100EF80088EA0308149B89EA0309159B88EA030812
:100F0800349B89EA0309359B88EA03083A9B83EAFC
:100F1800010C3B9B1F9983EA01070C9B0D998CEAF6
:100F2800030C4F402C9B2D998CEA030C4F401A9BC5
:100F38001B998CEA030C4F40169B369983EA0105EE
:100F4800179B379983EA010424991C9B4D402599E6
:100F58004C4012994D4013994C4028994D4029997D
:100F68004C40329959401D9B83EA0E0E2E9B5940E6
:100F78002F9B8EEA030E209B5940219B8EEA030E7D
:100F88000E9B4FEA490B59400F9B4BEAD87B4FEA1F
:100F9800480A8EEA030E4AEAD97A8BEA01034FEA35
:100FA8004C0B01934BEAD77B8AEA0E034FEA470AB8
:100FB80002934AEADC7A8BEA020303938AEA06037D
:100FC8004FEA440A4AEAD57A04938AEA08034FEAC0
:100FD8004E0848EAD178490041EADE71059381EA72
:100FE8000C03710041EAD2715200069342EAD672AC
:100FF80088EA0703079382EA0503089381EA040352
:10100800019A09934FEA450B0A9B079E099F4BEAF1
:10101800D47B8BEA090B83EA02090B9B029A059C95
:1010280083EA020A109B039A83EA0201119B049A3D
:101038000D0D5A400C9B45EA0235120D42EA013269
:1010480083EA0B010D9B4FEA51585C4048EAC428DB
:10105800640D44EAC124129B06995940139B5E40D3
:101068004FEA465E4EEAD12E490541EAD621089B51
:101078000E9E5E4033460F9E7E404FEA863C4CEA09
:10108800934C9B0343EA9643009ED6E902768AEA8C
:1010980006060B9689EA070728EA05067E400B9F95
:1010A8000A9624EA020677402EEA040656400B9771
:1010B80021EA08076F400D9625EA09052CEA0E0675
:1010C800744022EA0A0229EA03060C9723EA010778
:1010D8006B40129382EA0C037140069A0F941393A3
:1010E8002AEA0C04169B109184EA0E01119183EAF6
:1010F8000201079A179B099C53404FEA037C4CEA6C
:10110800111C090741EA1311089A1C9B53401D9AA8
:101118006240160546EA13361B0543EA1233019C62
:10112800189A82EA0405029C199A624087EA08071D
:101138004FEAC20848EA5578ED0045EA5275039C23
:10114800149A0E976240049F159C4FEAD24E7C4039
:101158004EEA443EE40C44EA42341A9A82EA0B0905
:101168001B9A059F7A404FEAD90747EA427725EA52
:10117800030AD20842EA49728AEA010A28EA0609F9
:1011880089EA0C09CDF850A02EEA050A8AEA030A72
:10119800CDF8549024EA080989EA0609CDF858A040
:1011A80023EA010327EA0E0A8AEA050526EA0C065D
:1011B8007B40CDF85C9022EA040918951C9389EAD3
:1011C800080586EA020319951D932CEA0205229B5D
:1011D800039ADDF8089021EA070883EA0201049AD5
:1011E800239B099F53406C404FEA430C4CEAD17C47
:1011F8001F9A1B944900059C41EAD3711E9B6240CB
:1012080083EA0B03960146EA93669B0143EA9263DD
:10121800069C249A82EA0405079C259A624088EA7B
:101228000E0E4FEA426848EAD5186D0645EAD2150F
:10123800089C209ACDF868E05440219A7A404FEAF9
:10124800022E4EEA146E240244EA1264019F269A82
:101258007A40279F87EA09094FEA894747EA923780
:1012680025EA030A920442EA99328AEA010A28EA3C
:10127800060989EA0C09CDF878A024EA050ACDF810
:101288007C908AEA030A2EEA080923EA010389EA1C
:101298000609534026EA0C06CDF880A022EA040A83
:1012A8008AEA0505CDF88490269327EA0E0986EA8E
:1012B80007032295279389EA08052E9B239521EA9F
:1012C8000208089A83EA0201099A2F9B53402CEAE4
:1012D80007054FEAC36C4CEA511CC90641EA531191
:1012E80088EA04042A9B019A249485EA0E045A4049
:1012F80025942B9B029C059F6340160F46EA031614
:101308001B0F43EA0213039C309A82EA0405049CEB
:10131800319A62404FEA822848EA9558AD0245EA78
:1013280092552C9A82EA0B042D9A7A404FEAC23ED3
:101338004EEA544EE40344EA5244069F289A82EA4D
:101348000709299A079F7A404FEA192747EA02674F
:1013580025EA060A120A42EA09628AEA010A28EA22
:10136800030989EA0C09CDF8A0A024EA050A8AEA4B
:10137800060ACDF8A4902EEA080989EA0309CDF8EF
:10138800A8A027EA040A8AEA0505CDF8AC9023EA62
:101398000C0322EA0E0953402C9526EA010689EA35
:1013A80008052D9521EA0708319386EA07013A9B3B
:1013B80030912CEA020505993B9A029FDDF81090BE
:1013C80083EA0B034A404FEA930C4CEA827C92086A
:1013D80042EA83720699369B88EA04042E9485EAC9
:1013E8000E044B402F943799079C5D0A81EA040646
:1013F80045EAC655760A46EAC3560899329B099CBF
:101408004B4033994FEA53684C4048EAC418640E7D
:1014180044EAC3140199389B4B4039994FEAD35E8B
:1014280079404EEA412EC90D41EA4321039F349B7E
:101438007B40359F87EA09094FEA890747EA93778E
:101448009B0043EA997328EA050A24EA060989EA0F
:1014580002098AEA0C0ACDF8C8A0CDF8CC902EEA89
:10146800080A21EA04098AEA050A89EA0609CDF880
:10147800D0A0CDF8D49023EA0E0A27EA01098AEA17
:10148800080889EA0404CDF8D88037942CEA0308C0
:1014980022EA070425EA0C056B4088EA0E0E614033
:1014A800CDF8E0E039913A93009B1033009326EA97
:1014B80002063D4B009A934286EA07067FF4F0A99C
:1014C8000A9B03600B9B43600C9B83600D9BC3606E
:1014D8000E9B03610F9B4361109B8361119BC3614A
:1014E800129B0362139B4362149B8362159BC36226
:1014F800169B0363179B4363189B8363199BC36302
:101508001A9B03641B9B43641C9B83641D9BC364DD
:101518001E9B03651F9B4365209B8365219BC365B9
:10152800229B0366239B4366249B8366259BC36695
:10153800269B0367279B4367289B8367299BC36771
:101548002A9BC0F880302B9BC0F884302C9BC0F8B5
:1015580088302D9BC0F88C302E9BC0F890302F9B84
:10156800C0F89430309BC0F89830319BC0F89C305C
:10157800329BC0F8A030339BC0F8A430349BC0F82D
:10158800A830359BC0F8AC30369BC0F8B030379BDC
:10159800C0F8B4303A9BC0F8B8E0C0F8BC10C0E955
:1015A80030363DB0BDE8F08F282800082DE9F34714
:1015B8000A9E15461C4611EB060C2CBF4FF001087D
:1015C8004FF00008AC450B4638D29C4538D8B8F1E6
:1015D800000F0CBF30460020084402B0BDE8F08779
:1015E80003F0070619F8012B23F00708F60000EBB3
:1015F800080AA6F12007C6F1200E22FA0EFE02FA0A
:1016080007F747EA0E0702FA06FE50F80860DAF80C
:10161800042086EA0E067A4040F808600133CAF8CA
:101628000420AB42DCD36B1AA94288BF00231C44B8
:10163800ACEB0506FFF7B6F80021BCE7A146F0E7DA
:1016480023F0070E03F0070714F8015BFF0000EB17
:101658000E09A7F12002C7F1200A05FA02F225FABD
:101668000AFABD40D9F80470019750F80E707D4011
:10167800019F40F80E5042EA0A025740C9F8047028
:101688000133A2E7F8B5069E05460C4610460CB98C
:101698001846F8BDB34202D1FFF784F800231C4472
:1016A800B34201D2A34201D3E41AF0E723F00701C1
:1016B800471803F00702D7F804E04158D200C2F1F6
:1016C800200CA2F12007D1400EFA0CFC41EA0C01D3
:1016D8002EFA07F7394305F8011B0133E0E7F0B5A7
:1016E80021F0070501F00701C9001F24A1F120031B
:1016F800C1F12006471924FA06F604FA03F3334326
:1017080046598C4079686640083A46515940104419
:101718007960436803F100434360F0BD10B5C82207
:1017280004460021FEF798FD0023C4F8C83010BD18
:10173800FFF7F4BF13B500920B468822D0F8C81003
:101748000446FFF733FFC4F8C80002B010BD10B557
:10175800D0F8C81004468822FFF7C1FF8823C4F8D0
:10176800C83010BD13B588230093D2F8C83014468A
:10177800FFF788FFC4F8C80002B010BD10B50246D4
:10178800014400208A4200D110BD12F8013B082410
:10179800584043B2002BBABF5B0083F04D034300AF
:1017A800013CD8B2F5D1EDE730B50022044601235B
:1017B8008B4201D3002030BD14F8015F15B99D1A82
:1017C80085541A460133DBB2F2E730B504780025B8
:1017D800024605702046884200D204B930BD145C28
:1017E80015540319D8B2F6E738B50B4D2B681F2BE3
:1017F80004DD612000F0C2F9012038BDF82901D9C3
:101808006220F7E70C2404FB035401332071C4E978
:1018180002122B600020F0E7B003002008B5064A4A
:1018280000217620FFF7E0FFBDE80840034A0021C9
:101838007720FFF7D9BF00BFA1180008BD1800081E
:1018480070B50C46C0B0114622B3224600258DF86B
:1018580001000DF103008DF802408DF80050FEF7ED
:101868004DFDA11CC9B20DF10100FFF787FF0DEB7B
:101878000403261D611DD870C9B268460DF80650CC
:10188800FFF792FF6C4614F8010B013500F076F96A
:10189800AE42F8DA40B070BD07B503230DF1070278
:1018A800012172208DF80730FFF7CAFF002003B02E
:1018B8005DF804FB30B50D48017889B000220C248E
:1018C800D3B28B4202F1010206DB6A467220FFF7AF
:1018D800B7FF002009B030BD03F1200504FB030366
:1018E8006D441B7905F8203CEAE700BFB0030020EF
:1018F8002DE9F047C0B0002401AD8DF80340A9469A
:1019080000F022F905F8010B58B905208DF80300FD
:101918000DF1030201216520FFF792FF40B0BDE8F9
:10192800F0870134042CEBD121464846FFF74DFFE0
:101938002C4E9DF805103268074600230C205FFAEC
:1019480083F8904502DB07D10120DFE700FB08653B
:1019580001332D798D42F2D19DF807300533BB4212
:1019680002DA0420D2E72C4600F0EEF809F8040069
:101978000028CAD09DF80730651C0433AB42F2DA60
:1019880000F0E2F805F580736B4403F8FC0C0028BE
:10199800E7D1C7F1010353FA85F1C9B25FFA85FAB5
:1019A80009EB0700FFF711FFAAF10201C9B20DF117
:1019B8000500FFF7E3FE04F580730DEB030414F84C
:1019C800FC3C83420CD10C2303FB08669DF80720DE
:1019D800F4689DF806109DF8050002ABA04795E74E
:1019E800022093E7B003002070B596B000240326C8
:1019F8004FF4A0230CA80125CDE90C63109414948E
:101A080000F0D4F80F23214602A8CDE90235CDE92C
:101A18000444069400F010FB114B5A6942F400226A
:101A28005A615B69CDE9094603F400230D4C019323
:101A3800019B07A94FF4C0432046CDE9073500F0C4
:101A48009BFB2A4620464FF4005100F053FC2A46DF
:101A58004FF48041204600F04DFC16B070BD00BF29
:101A6800001002400008004810B54FF4C06288B06A
:101A78000223CDE9032301210323CDE90513164CE5
:101A880007230793636943F400336361636903F4CD
:101A98000033019303A94FF09040019B00F06CFBC9
:101AA8000E48DFF83CC04FF46133C0E900C300239F
:101AB800C0E90233036183610C234361A36943F4E2
:101AC8008043A361A36903F480430293029B00F05F
:101AD80027FD08B010BD00BF0010024034050020EB
:101AE80000380140104B30B55A6942F400325A614F
:101AF8005B6987B003F400330093009B4FF4805474
:101B08000123CDE901430025032301A94FF09040AB
:101B1800CDE9035300F030FB2A4621464FF09040B0
:101B280000F0E8FB07B030BD0010024001224FF47E
:101B380080514FF0904000F0DDBB00224FF48051FF
:101B48004FF0904000F0D6BB37B50A4D0A4C41F231
:101B5800883301220DF10701284600F061FD18B90C
:101B68009DF8070003B030BD236A43F008032362E1
:101B7800EDE700BF340500200038014007B541F209
:101B880088338DF8070001220DF10701024800F0A3
:101B9800F1FC03B05DF804FB34050020024B186823
:101BA800421C1A60704700BFA405002003682DE995
:101BB800F743D907044610D423689A077ED42368CC
:101BC8001E0700F1E78023685D0700F12A81E269BA
:101BD800002A40F0AD8100201FE0AE494B6803F0B9
:101BE8000C03042B07D04B6803F00C03082B17D108
:101BF8004B68DB0314D54FF4003393FAA3F209685A
:101C080093FAA3F30122B3FA83F302FA03F30B4224
:101C1800D2D06368002BCFD1012003B0BDE8F08398
:101C28006268B2F5803F22D10B6843F480330B60C1
:101C3800CB6AA06823F00F030343CB623AB3FFF7E4
:101C4800ADFF4FF400360546012796FAA6F30A6859
:101C580096FAA6F3B3FA83F307FA03F31342ABD168
:101C6800FFF79CFF401B6428EFD90320D5E70B68DA
:101C780032B923F480330B600B6823F48023D6E752
:101C8800B2F5A02FF5D143F480230B60CCE7FFF722
:101C980085FF4FF400360546012796FAA6F30A6831
:101CA80096FAA6F3B3FA83F307FA03F3134283D041
:101CB800FFF774FF401B6428EFD9D6E775494B68D6
:101CC80013F00C0F07D04B6803F00C03082B1FD13F
:101CD8004B68DF031CD4022393FAA3F2086893FA33
:101CE800A3F30122B3FA83F302FA03F3034202D007
:101CF8002369934290D10868F82292FAA2F26369A4
:101D0800B2FA82F2934020F0F80213430B6056E7D0
:101D180022690125F2B195FAA5F3B3FA83F303F129
:101D2800845303F584139B0002271D60FFF736FFD9
:101D3800064697FAA7F30A6897FAA7F3B3FA83F364
:101D480005FA03F31342D6D1FFF728FF801B0228B8
:101D5800EFD98AE795FAA5F3B3FA83F303F184532D
:101D680003F584139B0002271A60FFF717FF064646
:101D780097FAA7F30A6897FAA7F3B3FA83F305FA71
:101D880003F313423FF41BAFFFF708FF801B022841
:101D9800EED96AE7A2693F4D3F48012102B391FAA3
:101DA800A1F3B3FA83F303449B0002261960FFF7FB
:101DB800F5FE074696FAA6F396FAA6F396FAA6F360
:101DC8006A6A96FAA6F3B3FA83F301FA03F31342A5
:101DD8007FF4F9AEFFF7E2FEC01B0228EAD944E718
:101DE80091FAA1F3B3FA83F303449B0002261A6025
:101DF800FFF7D4FE074696FAA6F396FAA6F396FAE4
:101E0800A6F36A6A96FAA6F3B3FA83F301FA03F320
:101E180013423FF4D8AEFFF7C1FEC01B0228EAD92F
:101E280023E71C49CB69D80031D4CB6943F08053F0
:101E3800CB61CB6903F080530193019B0125174EB9
:101E48003368DA052CD5E368012B39D10B6A43F0E6
:101E580001030B62FFF7A2FE022607464FF00108B6
:101E680041F2883996FAA6F396FAA6F30A6A96FA20
:101E7800A6F3B3FA83F308FA03F3134252D0002D02
:101E88003FF4A5AECB6923F08053CB619FE60025D4
:101E9800D5E700BF0010024020819010007000407C
:101EA800336843F480733360FFF778FE074633687E
:101EB800DB05C8D4FFF772FEC01B6428F7D9D4E647
:101EC80013BB0B6A23F001030B620B6A23F00403B4
:101ED8000B62FFF763FE022607464FF0010841F246
:101EE800883996FAA6F396FAA6F30A6A96FAA6F33A
:101EF800B3FA83F308FA03F31342C0D0FFF74EFE98
:101F0800C01B4845EDD9B0E6052B0B6A03D143F059
:101F180004030B629AE723F001030B620B6A23F0B8
:101F2800040396E7FFF73AFEC01B48459AD99CE69A
:101F38003F494B6803F00C03082B3FF46DAE022AAF
:101F48004FF0807350D193FAA3F3B3FA83F303F1FC
:101F5800845303F584139B0000221A60FFF71EFECA
:101F6800DFF8D08006464FF00077012597FAA7F3EF
:101F78000A6897FAA7F3B3FA83F305FA03F313424F
:101F88002CD1D4E908034A68034322F4741213439A
:101F98004B604FF0807393FAA3F3B3FA83F303F122
:101FA800845303F584139B00224F1D60FFF7F6FD51
:101FB8004FF000750446012695FAA5F30A6895FACC
:101FC800A5F3B3FA83F306FA03F313427FF403AEDF
:101FD800FFF7E4FD001BB842EED946E6FFF7DEFD49
:101FE800831B4345C2D940E693FAA3F3B3FA83F3BC
:101FF80003F1845303F584139B0000221A60FFF752
:10200800CDFD0C4F04464FF00075012695FAA5F357
:102018000A6895FAA5F3B3FA83F306FA03F31342B1
:102028003FF4D9ADFFF7BAFD001BB842EED91CE664
:1020380000100240400D03004D4AF8B5136803F044
:1020480007038B42044611D3226895071AD4D00798
:1020580020D4474A136803F007038B426CD82268E0
:10206800510774D413077AD400200AE0136823F0C8
:1020780007030B431360136803F007038B42E3D095
:102088000120F8BD3B48A568436823F0F0032B43C3
:102098004360DCE76268374D012A25D14FF40033ED
:1020A80093FAA3F0286893FAA3F3B3FA83F302FA36
:1020B80003F30342E4D06B6823F0030313436B601C
:1020C800FFF76CFD6368012B064641F288371CD187
:1020D8006B6803F00C03042BBBD0FFF75FFD801B7C
:1020E800B842F5D90320CCE7022A0CBF4FF00073A1
:1020F800022393FAA3F02E6893FAA3F30120B3FA0C
:1021080083F300FA03F33342D4E7022B0FD16B6851
:1021180003F00C03082B9CD0FFF740FD801BB8424E
:10212800F5D9DFE7FFF73AFD801BB842DAD86B68CC
:1021380013F00C0FF6D18CE7136823F007030B4359
:102148001360136803F007038B4299D187E70949A5
:10215800E0684B6823F4E06303434B6082E7054A79
:102168002169536823F4605343EAC10353607BE752
:1021780000200240001002402DE9F74FDFF8688187
:102188005A4C00234FF00F090A6832FA03F502D1BE
:1021980003B0BDE8F08F012505FA03FA1AEA020236
:1021A80000F098804D6825F0100EBEF1020F11D195
:1021B800DF0800EB870703F0070C3E6A4FEA8C0C38
:1021C80009FA0CFB26EA0B0B0E6906FA0CF646EA2E
:1021D8000B063E62D0F800B04FEA430C032606FA1D
:1021E8000CF72BEA070BFE4305F0030707FA0CF779
:1021F8000EF1FF3E47EA0B07BEF1010F076010D84A
:10220800876806EA070ECF6807FA0CF747EA0E0751
:102218008760476827EA0A0E2F099F4047EA0E079A
:102228004760C76837408E6806FA0CF63E43C660BA
:10223800EE004FD5D8F8186046F00106C8F81860C7
:10224800D8F8186023F0030707F1804706F0010665
:1022580007F58037019603F0030C019EBE684FEA2C
:102268008C0C09FA0CFEB0F1904F26EA0E0E33D012
:102278001F4EB04232D006F58066B04230D006F527
:102288008066B0422ED006F58066B04214BF05269F
:10229800042606FA0CF646EA0E06BE602668D74300
:1022A80015F4803F0CBF3E4016432660666815F45F
:1022B800003F0CBF3E4016436660A66815F4801FB9
:1022C8000CBF3E401643A660E668AD0254BF3E40D0
:1022D8001643E660013357E70026DAE70126D8E718
:1022E8000226D6E70326D4E7001002400004014086
:1022F800000400480AB1816170478162704700009C
:1023080002688368C16930B5056914682B4345695B
:1023180024F416442B4324F00C040B43234313608A
:102328005368C468056A23F4405323435360946890
:10233800836924F430642B4323439360424B9A42CD
:1023480011D103F558431B6B03F00303022B5FD035
:10235800032B65D0B1F5004F41684FEA510345D0D2
:1023680003F5E10348E0394B9A4212D103F5E6330D
:102378001B6B03F44033B3F5003F49D0EAD9B3F5FA
:10238800403F4DD0B1F5004F4FF001005BD1002325
:1023980053E02F4B9A420BD103F5E4331B6B03F444
:1023A8004023B3F5002F33D0D4D9B3F5402FE8E755
:1023B800284B9A420BD103F5E2331B6B03F440130D
:1023C800B3F5001F24D0C5D9B3F5401FD9E7224B78
:1023D8009A42D7D103F5E0331B6B03F44003B3F5FE
:1023E800000F15D0B6D9B3F5400FCAE703F561035E
:1023F8001FE04B0803F50043B3FBF1F39BB2D36036
:10240800002020E04B0803F5740303F51053F3E7AD
:10241800B1F5004F4168ECD14B0803F5803308E073
:10242800B1F5004F4168EDD14B0803F1F47303F5A2
:102438009043B3FBF1F300209BB223F00F01C3F3E9
:1024480042030B43D36030BD0038014000440040D4
:1024580000480040004C0040005000402DE9F04189
:10246800DDF81880044616461F462568EB6931EAF0
:1024780003030CBF01230023B34201D0002016E060
:10248800B8F1FF3FF2D0B8F1000F12D12B6823F456
:10249800D0732B60AB6823F00103AB60202384F872
:1024A800693084F86A30002384F868300320BDE876
:1024B800F081FFF773FBC01B4045D6D9E6E773B53B
:1024C80004460021C166FFF769FB266833681A07CE
:1024D800054616D433685B070AD56FF07E43009330
:1024E80000222B464FF480012046FFF7B7FFA0B922
:1024F8002023002084F8693084F8680084F86A3062
:102508000CE06FF07E4300930A4603464FF4001137
:102518002046FFF7A3FF0028DCD0032002B070BDDF
:1025280038B5044620B390F8693003F0FF020BB9C0
:1025380080F868202568242384F869302B6823F004
:1025480001032B602046FFF7DBFE012810D06B68E3
:1025580023F490436B60AB6823F02A03AB602B68CD
:1025680043F001032B602046BDE83840FFF7A7BFC2
:10257800012038BDF7B51E4690F86930202B0D466E
:10258800044611464AD1002D46D0002A44D090F87E
:102598006830012B42D0012380F868300023C366DD
:1025A800212380F86930FFF7F9FAA4F8501007469C
:1025B800A4F85210B4F8522092B262B900963B4681
:1025C80040212046FFF74AFF98B9202384F8693054
:1025D80084F868000EE0B4F85220013A92B2A4F8E8
:1025E80052203B460096002280212046FFF736FF06
:1025F80010B1032003B0F0BDA3682268B3F5805F73
:1026080007D123692BB935F8023BC3F308031385B7
:10261800D0E715F8013BFAE70120EBE70220E9E7EC
:102628002DE9F3411E4690F86A30202B0D460446EA
:1026380011465CD1002D58D0002A56D090F8683049
:10264800012B54D0012380F8683003684FF0FF3223
:102658001A620023C366222380F86A30FFF79EFAC5
:10266800A368A4F85810B3F5805F8046A4F85A1000
:1026780015D123698BB940F2FF13A4F85C30B4F884
:102688005C70B4F85A0080B280B9202384F86A30AC
:1026980084F8680002B0BDE8F081FF23EDE7002B65
:1026A800EDD12369002BF8D07F23E6E7B4F85A2050
:1026B800013A92B2A4F85A204346009600222021FB
:1026C8002046FFF7CBFEA0B9A2682368B2F5805F69
:1026D80006D1226922B99B8C3B4025F8023BD0E702
:1026E8009B8C3B4005F8013BCBE70120D2E7022059
:1026F800D0E70320CEE70000002103E00B4B5B5836
:10270800435004310A480B4B42189A42F6D30A4AFE
:1027180002E0002313600432084B9A42F9D3AFF366
:102728000080FDF771FDFDF737FFFEE73828000848
:10273800000000209002002090020020AC0500203C
:10274800FEE70000F8B500BFF8BC08BC9E4670471D
:0C275800F8B500BFF8BC08BC9E467047F6
:10276800010000000000000082800000000000005E
:102778008A80000000000080008000800000008047
:102788008B800000000000000100008000000000B5
:102798008180008000000080098000000000008027
:1027A8008A0000000000000088000000000000000F
:1027B80009800080000000000A000080000000007E
:1027C8008B800080000000008B000000000000806B
:1027D8008980000000000080038000000000008065
:1027E80002800000000000808000000000000080DF
:1027F8000A800000000000000A000080000000803D
:10280800818000800000008080800000000000803F
:1028180001000080000000000880008000000080A7
:08282800DCDAFF7F0100000073
:04283000F1010008AA
:04283400C9010008CE
:102838009D28D3C712DBB7024DD77B9AAF9ECFA294
:10284800C7DC3FCE80E747B3F562651D65FCA76C22
:10285800BC12FA3363E0F530CFBD0350992E085906
:1028680049659A225574293A4FEF3B01C5A3C9A877
:10287800863CB74845F63C35601ED0B268990529B4
:102888007CAA648FE4917299F20B1BE2E9712D62C4
:102898002CE670861713A44ADF2E00039EC67D928D
:1028A8007D3BC9D9ED91C94057A4274A5396E445C1
:1028B8008D62757174001C5FD56D6D0F9F7CCEE8BD
:1028C80000010000000001000000000103010100F8
:1028D800AB8096D1D35353571FEFCF2D3D9D16365E
:1028E8006E2B363194534F494898D5DD5A2E4DA159
:1028F80045E05DF1D53B2010C72E4B7BA0A0164FBD
:10290800E5ED995433722DFFBB9BFFF9A0653B9809
:1029180051F06866E6E8DDE5636C3FC9B08C7B5131
:102928005C14928E857CB60C96E3BB22F7CB06A985
:10293800EF55B878D3DF1DB9A06F3AB6FD39E0720C
:10294800B874B9FC76A59FB788FBD8F0A7C293B135
:10295800C7DC3FCE80E747B3F562651D65FCA76C11
:10296800BC12FA3363E0F530CFBD0350992E0859F5
:102978008D4D4FA66E90F8AE7C5F9DC9C6F122C101
:10298800863CB74845F63C35601ED0B268990529A3
:102998006A92A62B7868E239FAD9E510E785A4D1BE
:1029A800FC0D5E71A39092B08DA7BA3D162462A566
:1029B800E8D7E0B9A86CB48D20F4AEDA163EB0F9C9
:1029C8009D28D3C712DBB7024DD77B9AAF9ECFA203
:1029D800244AF0F397C87EBC499C240763B8FAEAF6
:1029E800D1EA43800CBC27B1D43403D1836FC20D24
:1029F800F3E04CAFF8461D975D7097B1126F7F0BEF
:102A0800DA255DAA40959CF0CAC4BE5B62435A347D
:102A1800A18FD7E9E64D92849C69AFBE79876C583F
:102A2800DC2E8D11F9A0DEE2C3162CB3615A8DA9F4
:102A380049659A225574293A4FEF3B01C5A3C9A8A5
:102A480062E27F3BDC0740898EC662E83C98F9A5C4
:102A5800733A0127C67AD35E5B51BA6C97AE0BA561
:102A68007CAA648FE4917299F20B1BE2E9712D62E2
:102A78005C8ECDB80BF8B45CAE2B00853FAA9EB334
:102A8800CA772731D67A6F922C302DF6C67DE1C2EF
:102A9800EB32B6D9A6F1F1C500DD1F9D38DBDF2C7E
:102AA800BCA7536C57F0A3D59DC1050FDB6CD2D0E2
:102AB8002CE670861713A44ADF2E00039EC67D926B
:0400000508002701C7
:00000001FF
